:04030000D1EF01F048
:10030800FACF12F0FBCF13F0E9CF14F057EF1EF03D
:10031800D8CF01F0E8CF02F0E0CF03F0FACF04F035
:10032800FBCF05F0E9CF06F0EACF07F0E1CF08F000
:10033800E2CF09F0D9CF0AF0DACF0BF0F3CF0CF007
:10034800F4CF0DF0F6CF0EF0F7CF0FF0F8CF10F096
:10035800F5CF11F011C0F5FF10C0F8FF0FC0F7FF7F
:100368000EC0F6FF0DC0F4FF0CC0F3FF0BC0DAFFA0
:100378000AC0D9FF09C0E2FF08C0E1FF07C0EAFFD1
:1003880006C0E9FF05C0FBFF04C0FAFF03C0E0FF99
:0E03980002C0E8FF01C0D8FF10008AEF1EF07F
:10100000000D0A5374616E64617264204361706103
:1010100063697479204361726420285665722E31A9
:101020002E782920446574656374656421000D0A77
:101030005374616E646172642043617061636974AA
:1010400079204361726420285665722E322E7829E9
:1010500020446574656374656421000D0A43617200
:101060006420496E697469616C697A6174696F6E34
:10107000206661696C65642E2E000D0A48696768F8
:101080002043617061636974792043617264204414
:101090006574656374656421000D0A556E6B6E6F2F
:1010A000776E205344204361726420446574656305
:1010B00074656421000D0A53442043617264205416
:1010C000657374204A757374205374617274656417
:1010D000000D0A53442063617264206E6F742064B3
:1010E000657465637465642E2E000D0A46415433A1
:1010F00032206E6F7420666F756E64210000000EE2
:101100000101DF6F000E0101D26F000E0101D56FEA
:10111000000E0101D36F000E0101E06F000E01010E
:10112000CF6F000E0101CE6F000E0101D16F000ED6
:101130000101D06F0001E0C0C0F00001DFC0BFF0CE
:10114000010E2DEC16F00101E76F0101E705D8A4AF
:10115000C8D0010E0101D36F0CC1EAF10DC1EBF152
:101160000EC1ECF10FC1EDF1000E0101CA6F000ECE
:101170000101CB6F000E0101CC6F000E0101CD6F9C
:10118000EAC179F0EBC17AF0ECC17BF0EDC17CF003
:10119000000E00017D6F000E00017E6F000E000149
:1011A0007F6F000E0001806F000E0001816F57EC11
:1011B00018F079C0D6F17AC0D7F17BC0D8F17CC0E5
:1011C000D9F10101D629D8B4D729D8B4D8290F0E1E
:1011D000D8B4D919D8B413D0D6C1EAF1D7C1EBF13C
:1011E000D8C1ECF1D9C1EDF1010E0101CA27000E01
:1011F0000101CB230101CC230101CD23C1D7000183
:101200003FC060F0000140C061F00001626B00016E
:10121000636B0001EEC064F00001EFC065F00001F7
:10122000666B0001676BD3EC1DF060C0C6F161C056
:10123000C7F162C0C8F163C0C9F1C6C160F0C7C1DF
:1012400061F0C8C162F0C9C163F0CAC164F0CBC12A
:1012500065F0CCC166F0CDC167F0D3EC1DF060C085
:10126000E3F061C0E4F062C0E5F063C0E6F00001C5
:10127000E31FE41FE51FE61FE32B000EE423E52335
:10128000E62327500001E32500016C6F2850000180
:10129000E42100016D6F29500001E52100016E6F0E
:1012A0002A500001E62100016F6F0001EEC070F0CE
:1012B0000001EFC071F00001726B0001736BC2ECB2
:1012C0001CF06CC0E7F06DC0E8F06EC0E9F06FC0D4
:1012D000EAF00001E7510101E06F010E0101D56F55
:1012E00099D00101E751020AD8A402D0010E1200E0
:1012F000000E0001756F000E0001766F000E0001F8
:10130000776F000E0001786F000E0001796F020EFA
:101310004CEC19F075C0EAF176C0EBF177C0ECF156
:1013200078C0EDF10101EA512F5C0101EB51305819
:101330000101EC5131580101ED513258D8B008D0BB
:101340002BC0EAF12CC0EBF12DC0ECF12EC0EDF179
:10135000EAC179F0EBC17AF0ECC17BF0EDC17CF031
:1013600055EC17F079C0EAF17AC0EBF17BC0ECF1F3
:101370007CC0EDF10101ED51EA11EB11EC11D8A4A3
:1013800002D0010E1200EAC179F0EBC17AF0ECC193
:101390007BF0EDC17CF0010E00017D6FFF0E0001BE
:1013A0007E6FFF0E00017F6FFF0E0001806F0F0E3A
:1013B0000001816F57EC18F0000E0101EA150001E1
:1013C000E36F000E0101EB150001E46FFF0E010158
:1013D000EC150001E56FFF0E0101ED150001E66F50
:1013E000110E06D00001D890E633E533E433E33341
:1013F000E82EF8D7E3C0CEF1E4C0CFF1EAC1D0F1D6
:10140000EBC1D1F1000E276E000E286E000E296E82
:10141000000E2A6E000E0101DE6F0101D551D8B415
:1014200053D0000E0101D56FEAC16CF0EBC16DF035
:10143000ECC16EF0EDC16FF016EC1EF06CC0E3F085
:101440006DC0E4F06EC0E5F06FC0E6F00101E05160
:101450000001E325236E000E0001E421246E000E3E
:101460000001E521256E000E0001E621266E23C055
:101470006CF024C06DF025C06EF026C06FF02CEC2F
:101480001DF027C060F028C061F029C062F02AC0BA
:1014900063F00001EEC064F00001EFC065F00001F0
:1014A000666B0001676B84EC1DF060C0E3F061C007
:1014B000E4F062C0E5F063C0E6F0E3C0E5F1E4C04B
:1014C000E6F1E0C1E7F11BD0EAC16CF0EBC16DF0D1
:1014D000ECC16EF0EDC16FF016EC1EF06CC023F0A5
:1014E0006DC024F06EC025F06FC026F0000E010123
:1014F000E66F000E0101E56F000E0101E76F0101CB
:10150000DE51010DF3500001E125D96EF4500001C8
:10151000E221DA6EDF500101DF6F0101DE2BEE0EFA
:101520000101E525D96E010E0101E621DA6E010106
:10153000DFC1DFFF0101E54BE62B010E2726000E80
:10154000282229222A22000E0101E55D020E010156
:10155000E659D8A02CD0000E0101E66F000E010163
:10156000E56F23C06CF024C06DF025C06EF026C07E
:101570006FF048EC1CF00101D46F0101E72B010171
:10158000E7510001E36FE46B40500001E41903E10F
:101590003F500001E319D8A404D0000E0101E76F09
:1015A0000FD0010E2326000E24222522262201011F
:1015B000DF510A0AD8B404D0630E0101DE659FD75B
:1015C0000101DF510A0AD8B404D0630E0101DE65BF
:1015D00023D0000E0101E55D020E0101E659D8B0ED
:1015E0000ED0EE0E0101E525D96E010E0101E621B6
:1015F000DA6E000EDF6E0101E54BE62BEAD723C061
:101600006CF024C06DF025C06EF026C06FF048EC81
:101610001CF00101D46F52D0EAC1E1F1EBC1E2F15B
:10162000ECC1E3F1EDC1E4F1E1C179F0E2C17AF09E
:10163000E3C17BF0E4C17CF055EC17F079C0EAF12E
:101640007AC0EBF17BC0ECF17CC0EDF10101ED5112
:10165000EA11EB11EC11D8A402D0010E1200E1C185
:1016600079F0E2C17AF0E3C17BF0E4C17CF0010ED5
:1016700000017D6FEAC17EF0EBC17FF0ECC180F02C
:10168000EDC181F057EC18F0EAC179F0EBC17AF0C6
:10169000ECC17BF0EDC17CF0010E00017D6FFF0E0F
:1016A00000017E6FFF0E00017F6FFF0E0001806F53
:1016B0000F0E0001816F57EC18F0AFD6010E00013C
:1016C000756FEAC176F0EBC177F0ECC178F0EDC14F
:1016D00079F0020E4CEC19F06BEC1FF00101D46FA5
:1016E0000101D451D8B408D0000E386E000E376E08
:1016F000000E3C6E000E3B6E0101D351D8B499D060
:1017000008C16CF009C16DF00AC16EF00BC16FF039
:101710002CEC1DF0EE0E0001E36F010EE46F0101F1
:1017200004510001E327010105510001E423E3C056
:10173000E8F1E4C0E9F1010120EE12F00101E85105
:10174000D9260101E951DA22000EDE6E000EDD6EAF
:10175000010120EE16F00101E851D9260101E951FD
:10176000DA223BC0DEFF3CC0DDFF010120EE18F0B5
:101770000101E851D9260101E951DA2237C0DEFF23
:1017800038C0DDFF010120EE1CF00101E851D9262F
:101790000101E951DA22DECFE3F0DECFE4F0DECF63
:1017A000E5F0DECFE6F00001E31FE41FE51FE61FD2
:1017B000E32B000EE423E523E62327500001E32575
:1017C0000101C26F28500001E4210101C36F2950BB
:1017D0000001E5210101C46F2A500001E621010149
:1017E000C56F010120EE1CF00101E851D92601016D
:1017F000E951DA2227C0DEFF28C0DEFF29C0DEFF64
:101800002AC0DEFF08C16CF009C16DF00AC16EF09C
:101810000BC16FF048EC1CF0C2C181F0C3C182F073
:10182000C4C183F0C5C184F0010EEEEC14F0000ECB
:1018300012002BC0E1F12CC0E2F12DC0E3F12EC06B
:10184000E4F1E1C16CF0E2C16DF0E3C16EF0E4C11E
:101850006FF016EC1EF06CC0DAF16DC0DBF16EC0FB
:10186000DCF16FC0DDF1000E0101E06F2DD101014F
:10187000E0510101DA2500016C6F000E0101DB214E
:1018800000016D6F000E0101DC2100016E6F000E82
:101890000101DD2100016F6F2CEC1DF0000E010134
:1018A000E66F000E0101E56F03D1EE0E0001E36F5C
:1018B000010EE46F0101E5510001E3270101E6514A
:1018C0000001E423E3C0E8F1E4C0E9F10101D251F1
:1018D000D8B402D0000E1200E8C1D9FFE9C1DAFF86
:1018E000DF50D8B407D0E50EE8C1D9FFE9C1DAFF6F
:1018F000DF62D8D0000E0101E76F1AD00101E75175
:10190000010DF3500001DF25D96EF4500001E021F4
:10191000DA6E0101E751010DF3500101E825E16E96
:10192000F4500101E921E26EDFCFE7FF0101E72B6F
:101930000A0E0101E765E2D7010120EE0BF001017B
:10194000E851D9260101E951DA22200EDF6E0101AA
:1019500020EE0CF00101E851D9260101E951DA220B
:10196000000EDF6E010120EE0DF00101E851D926D5
:101970000101E951DA22000EDF6E010120EE0EF0C6
:101980000101E851D9260101E951DA223BC0DEFF0D
:101990003CC0DDFF010120EE10F00101E851D92625
:1019A0000101E951DA2237C0DEFF38C0DDFF010155
:1019B00020EE12F00101E851D9260101E951DA22A5
:1019C000000EDE6E000EDD6E010120EE16F001014C
:1019D000E851D9260101E951DA223BC0DEFF3CC0C3
:1019E000DDFF010120EE18F00101E851D9260101C7
:1019F000E951DA2237C0DEFF38C0DDFF010120EEF9
:101A000014F00101E851D9260101E951DA2201015E
:101A1000CEC1DEFF0101CFC1DDFF010120EE1AF0D2
:101A20000101E851D9260101E951DA220101D0C1B1
:101A3000DEFF0101D1C1DDFF010120EE1CF001013B
:101A4000E851D9260101E951DA2227C0DEFF28C07A
:101A5000DEFF29C0DEFF2AC0DEFF0101E0510101E7
:101A6000DA2500016C6F000E0101DB2100016D6FB2
:101A7000000E0101DC2100016E6F000E0101DD216D
:101A800000016F6F48EC1CF0010E0101D26F27C0FE
:101A900081F028C082F029C083F02AC084F0010EB2
:101AA000EEEC14F0200E0101E527000E0101E62303
:101AB0000001EE510101E55D0001EF510101E65920
:101AC000D8A0F3D60101E02B0101E0510001E36F42
:101AD000E46B3F500001E35D40500001E459D8A0A1
:101AE000C6D6E1C179F0E2C17AF0E3C17BF0E4C18E
:101AF0007CF0000E00017D6F000E00017E6F000E75
:101B000000017F6F000E0001806F000E0001816FE9
:101B100057EC18F079C0EAF17AC0EBF17BC0ECF138
:101B20007CC0EDF1F70E0101EA5DFF0E0101EB59FA
:101B3000FF0E0101EC590F0E0101ED59D8A04ED056
:101B40000101EA29D8B4EB29D8B4EC290F0ED8B496
:101B5000ED19D8A441D0E1C179F0E2C17AF0E3C136
:101B60007BF0E4C17CF055EC17F079C0EAF17AC063
:101B7000EBF17BC0ECF17CC0EDF1E1C179F0E2C1A9
:101B80007AF0E3C17BF0E4C17CF0010E00017D6FCF
:101B9000EAC17EF0EBC17FF0ECC180F0EDC181F0D5
:101BA00057EC18F0EAC179F0EBC17AF0ECC17BF0A8
:101BB000EDC17CF0010E00017D6FFF0E00017E6F14
:101BC000FF0E00017F6FFF0E0001806F0F0E0001FE
:101BD000816F57EC18F002D0010E12000101ED5197
:101BE000EA11EB11EC11D8A402D0010E1200EAC1E7
:101BF000E1F1EBC1E2F1ECC1E3F1EDC1E4F121D699
:101C00000001AD6F2BC0B8F02CC0B9F02DC0BAF0F8
:101C10002EC0BBF0B8C06CF0B9C06DF0BAC06EF0A9
:101C2000BBC06FF016EC1EF06CC0A9F06DC0AAF03E
:101C30006EC0ABF06FC0ACF0000E0001B06F000ED4
:101C40000001B16F000E0001B26F000E0001B36F12
:101C500071D20001B0510001A92500016C6F000193
:101C6000B1510001AA2100016D6F0001B2510001C4
:101C7000AB2100016E6F0001B3510001AC210001E6
:101C80006F6F2CEC1DF0000E0001AF6F000E000115
:101C9000AE6F3CD2EE0E00019D6F010E9E6F0001F3
:101CA000AE5100019D270001AF5100019E239DC050
:101CB000BDF09EC0BEF0BDC0D9FFBEC0DAFFDF5090
:101CC000D8A407D0000E00019C6F000E00019B6F8E
:101CD0001200BDC0D9FFBEC0DAFFDF50E50AD8B49C
:101CE0000FD2000120EE0BF00001BD51D9260001FA
:101CF000BE51DA22DF500F0AD8B402D20001AD057E
:101D0000D8B405D00001AD51020AD8A4BDD1000E4F
:101D10000001BC6F20D00001BC51010DF350000147
:101D20009B25D96EF45000019C21DA6EDF50000132
:101D30009D6F0001BC51010DF3500001BD25D96E0E
:101D4000F4500001BE21DA6EDF5000019D19D8A4C5
:101D500006D00001BC2B0A0E0001BC65DCD70001D7
:101D6000BC510B0AD8A4CCD10001AD05D8A47FD0BA
:101D70000001B0510001A9250101086F0001B15116
:101D80000001AA210101096F0001B2510001AB213C
:101D900001010A6F0001B3510001AC2101010B6F79
:101DA00000010101AEC004F100010101AFC005F165
:101DB0000101066B0101076B000120EE1AF0000122
:101DC000BD51D9260001BE51DA22DECF9DF0DDCF14
:101DD0009EF0000120EE14F00001BD51D926000153
:101DE000BE51DA22DECF9FF0DDCFA0F000019F517F
:101DF0000001A16F0001A0510001A26F0001A36BBF
:101E00000001A46BA2C0A4F0A1C0A3F00001A26BCA
:101E1000A16B00019D510001A11101010C6F000196
:101E20009E510001A21101010D6F000E0001A311CE
:101E300001010E6F000E0001A41101010F6F0001DE
:101E400020EE1CF00001BD51D9260001BE51DA225E
:101E5000DECF27F0DECF28F0DECF29F0DECF2AF06C
:101E60000001BEC09CF00001BDC09BF0120000014B
:101E700020EE1AF00001BD51D9260001BE51DA2230
:101E8000DECF9DF0DDCF9EF0000120EE14F00001CA
:101E9000BD51D9260001BE51DA22DECF9FF0DDCF41
:101EA000A0F000019F510001A16F0001A0510001AD
:101EB000A26F0001A36B0001A46BA2C0A4F0A1C09B
:101EC000A3F00001A26BA16B00019D510001A111C3
:101ED0000001B46F00019E510001A2110001B56F15
:101EE000000E0001A3110001B66F000E0001A41145
:101EF0000001B76FBDC0D9FFBEC0DAFFE50EDF6ECF
:101F00000001B0510001A92500016C6F0001B15121
:101F10000001AA2100016D6F0001B2510001AB2147
:101F200000016E6F0001B3510001AC2100016F6F21
:101F300048EC1CF0000120EE1CF00001BD51D92638
:101F40000001BE51DA220001DECF81F00001DECFB8
:101F500082F00001DECF83F00001DECF84F0000EBE
:101F6000EEEC14F0000E0001756F000E0001766FAC
:101F7000000E0001776F000E0001786F000E000167
:101F8000796F020E4CEC19F075C0B8F076C0B9F05C
:101F900077C0BAF078C0BBF00001B8510001B45D61
:101FA0000001B9510001B5590001BA510001B659FB
:101FB0000001BB510001B759D8B00ED0010E00018D
:101FC000756FB4C076F0B5C077F0B6C078F0B7C022
:101FD00079F0020E4CEC19F0B4C079F0B5C07AF08B
:101FE000B6C07BF0B7C07CF0000E00017D6F000E24
:101FF00000017E6F000E00017F6F000E0001806FF8
:10200000000E0001816F57EC18F079C0A5F07AC07E
:10201000A6F07BC0A7F07CC0A8F0B4C079F0B5C032
:102020007AF0B6C07BF0B7C07CF0010E00017D6F86
:10203000000E00017E6F000E00017F6F000E000198
:10204000806F000E0001816F57EC18F0F70E000151
:10205000A55DFF0E0001A659FF0E0001A7590F0E46
:102060000001A859D8A007D0000E00019C6F000EF7
:1020700000019B6F1200A5C0B4F0A6C0B5F0A7C0C8
:10208000B6F0A8C0B7F0A8D7000E0001BC6F02D010
:102090000001BC2B0A0E0001BC65FAD7000120EE3E
:1020A0000BF00001BD51D9260001BE51DA22DF50EC
:1020B000100AD8B425D0000120EE0BF00001BD516C
:1020C000D9260001BE51DA22DF50080AD8B418D050
:1020D000000120EE1CF00001BD51D9260001BE51C7
:1020E000DA220001DECF79F00001DECF7AF00001C4
:1020F000DECF7BF00001DECF7CF0000E0DEC1BF09C
:10210000200E0001AE27000E0001AF230001EE51AA
:102110000001AE5D0001EF510001AF59D8A0BAD562
:10212000010E0001B027000E0001B1230001B2230F
:102130000001B3233F5000019D6F405000019E6F8E
:1021400000019F6B0001A06B00019D510001B05D7B
:1021500000019E510001B15900019F510001B25987
:102160000001A0510001B359D8A073D5B8C079F0CF
:10217000B9C07AF0BAC07BF0BBC07CF0000E0001A1
:102180007D6F000E00017E6F000E00017F6F000E5C
:102190000001806F000E0001816F57EC18F079C0CC
:1021A000B8F07AC0B9F07BC0BAF07CC0BBF0F70ED3
:1021B0000001B85DFF0E0001B959FF0E0001BA59C8
:1021C0000F0E0001BB59D8A007D0000E00019C6F74
:1021D000000E00019B6F12000001BB51B811B91134
:1021E000BA11D8A417D5000E00019C6F000E000193
:1021F0009B6F1200000E336E000E346E000E356EB3
:10220000000E366E000E00016C6F000E00016D6F47
:10221000000E00016E6F000E00016F6F2CEC1DF0C0
:10222000010E0001996FEE0E0001986F98C0D9FF62
:1022300099C0DAFFDF50E90AD8B46BD098C0D9FF53
:1022400099C0DAFFDF50EB0AD8B463D0010E000169
:10225000956FEE0E0001946F000121EEFEF000017B
:102260009451D92600019551DA22D92ADD50AA0AC3
:10227000550ED8B4DF18D8B402D0010E1200BE0E2D
:10228000000194250001966F010E000195210001C7
:10229000976F000120EE08F000019651D926000149
:1022A0009751DA22DECF33F0DECF34F0DECF35F0D7
:1022B000DECF36F0000120EE08F000019651D9265D
:1022C00000019751DA220001DECF6CF00001DECF71
:1022D0006DF00001DECF6EF00001DECF6FF02CEC70
:1022E0001DF0010E0001996FEE0E0001986F98C06D
:1022F000D9FF99C0DAFFDF50E90AD8B40AD098C0F4
:10230000D9FF99C0DAFFDF50EB0AD8B402D0010E32
:102310001200000120EE0BF000019851D9260001B7
:102320009951DA220001DECFEEF00001DDCFEFF0AF
:10233000000120EE0DF000019851D92600019951BD
:10234000DA22DF500001816F000181513F6E406A47
:10235000000120EE0EF000019851D926000199519C
:10236000DA22DECF39F0DDCF3AF0000120EE2CF09A
:1023700000019851D92600019951DA22DECF2BF0C5
:10238000DECF2CF0DECF2DF0DECF2EF0000120EEE0
:102390001CF000019851D92600019951DA22DECFB4
:1023A00081F0DECF82F0DECF83F0DECF84F000015B
:1023B00020EE10F000019851D92600019951DA223F
:1023C000DF500001856F000185510001606F000141
:1023D000616B0001626B0001636B000120EE24F071
:1023E00000019851D92600019951DA220001DECF6F
:1023F00064F00001DECF65F00001DECF66F0000181
:10240000DECF67F0D3EC1DF060C086F061C087F0CE
:1024100062C088F063C089F0395000018625000150
:102420008A6F3A500001872100018B6F000E000176
:10243000882100018C6F000E0001892100018D6F41
:102440000001815100018A250101106F00018251B4
:1024500000018B210101116F0001835100018C21CA
:102460000101126F0001845100018D210101136FE0
:10247000000120EE20F000019851D9260001995169
:10248000DA22DECF81F0DECF82F0DECF83F0DECF46
:1024900084F0000120EE10F000019851D9260001CF
:1024A0009951DA22DF500001856F0001855100014A
:1024B000606F0001616B0001626B0001636B0001E2
:1024C00020EE24F000019851D92600019951DA221A
:1024D0000001DECF64F00001DECF65F00001DECF49
:1024E00066F00001DECF67F0D3EC1DF060C086F02F
:1024F00061C087F062C088F063C089F0000120EEFF
:102500000EF000019851D92600019951DA22DECF50
:102510008AF0DDCF8BF000018A5100018625000191
:102520008C6F00018B510001872100018D6F000E1F
:102530000001882100018E6F000E00018921000139
:102540008F6F00018C1F8D1F8E1F8F1F8C2B000E15
:102550008D238E238F230001815100018C250001E2
:10256000906F0001825100018D210001916F0001E7
:10257000835100018E210001926F000184510001FE
:102580008F210001936F90C06CF091C06DF092C0EC
:102590006EF093C06FF000013FC070F0000140C0CA
:1025A00071F00001726B0001736BC2EC1CF06CC027
:1025B0002FF06DC030F06EC031F06FC032F0000E01
:1025C0000001756F000E0001766F000E0001776F3D
:1025D000000E0001786F000E0001796F010E4CECC7
:1025E00019F075C081F076C082F077C083F078C0B2
:1025F00084F0000181512F5C0001825130580001AC
:1026000083513158000184513258D8B002D0000EA5
:1026100001D0010E0001F06F000E1200000E0F013C
:10262000386F000E0F01396F000E0F013A6F000E68
:102630000F013B6F000E0F013C6F000EC26E000ECB
:10264000C16E000EC06E000E796E000E786E000E28
:10265000776E949492888B8407EC1FF06C9A000E2E
:10266000206E800E216E020EB9EC1EF0000E0001ED
:10267000EC6F0FD00001EC51010D0101140EF32499
:10268000D96E0101010EF420DA6E000EDF6E00013A
:10269000EC2B630E0001EC65EDD7100E226EB50E2B
:1026A000216E23EC1FF0000E0001EC6F0AD02EEC1F
:1026B0001AF00001ED6F0001ED6701D006D00001B6
:1026C000EC2B090E0001EC65F2D70001ED51D8B4F6
:1026D00017D00001ED05D8A406D0100E226ED10E41
:1026E000216E23EC1FF00001ED51020AD8A406D0A0
:1026F000100E226E5B0E216E23EC1FF064EC1FF0B7
:1027000069EC1FF00001EB6F1CD0100E226E010E61
:10271000216E23EC1FF021D0100E226E7A0E216E56
:1027200023EC1FF01AD0100E226E2E0E216E23EC19
:102730001FF013D0100E226E990E216E23EC1FF0A5
:102740000CD00001EB51010AD8B4DFD7030AD8B48A
:10275000E3D7010AD8B4E7D7EDD7FAEC10F00001BF
:10276000ED6F0001ED51D8B408D0100E226EEA0EC4
:10277000216E23EC1FF064EC1FF06C9A000E206EAB
:10278000800E216E000EB9EC1EF0A00E56EC1FF06C
:10279000000E00019C6F000E00019B6F000E00EC0C
:1027A0000EF0000E0001EC6F1AD00001EC51010D8B
:1027B0000101780EF324D96E0101010EF420DA6EC6
:1027C0000001EC51010D0101140EF324E16E010131
:1027D000010EF420E26EDFCFE7FF0001EC2B280EA4
:1027E0000001EC65E2D70101010E0001E06F01017B
:1027F000B60E0001DF6F0101010E0001E26F010161
:10280000140E0001E16F7FEC08F00001ED6F000194
:10281000ED51D8A464EC1FF0310E01013A6F0101B3
:10282000010E0001E06F0101B60E0001DF6F010132
:10283000010E0001E26F0101140E0001E16F7FEC57
:1028400008F00001ED6F0001ED51D8A464EC1FF019
:10285000320E01013A6F0101010E0001E06F01012A
:10286000B60E0001DF6F0101010E0001E26F0101F0
:10287000140E0001E16F7FEC08F00001ED6F000124
:10288000ED51D8A464EC1FF0330E01013A6F010141
:10289000010E0001E06F0101B60E0001DF6F0101C2
:1028A000010E0001E26F0101140E0001E16F7FECE7
:1028B00008F00001ED6F0001ED51D8A464EC1FF0A9
:1028C000340E01013A6F0101010E0001E06F0101B8
:1028D000B60E0001DF6F0101010E0001E26F010180
:1028E000140E0001E16F7FEC08F00001ED6F0001B4
:1028F000ED51D8A464EC1FF0350E01013A6F0101CF
:10290000010E0001E06F0101B60E0001DF6F010151
:10291000010E0001E26F0101140E0001E16F7FEC76
:1029200008F00001ED6F0001ED51D8A464EC1FF038
:10293000360E01013A6F0101010E0001E06F010145
:10294000B60E0001DF6F0101010E0001E26F01010F
:10295000140E0001E16F7FEC08F00001ED6F000143
:10296000ED51D8A464EC1FF0370E01013A6F01015C
:10297000010E0001E06F0101B60E0001DF6F0101E1
:10298000010E0001E26F0101140E0001E16F7FEC06
:1029900008F00001ED6F0001ED51D8A464EC1FF0C8
:1029A000380E01013A6F0101010E0001E06F0101D3
:1029B000B60E0001DF6F0101010E0001E26F01019F
:1029C000140E0001E16F7FEC08F00001ED6F0001D3
:1029D000ED51D8A464EC1FF08B94FFD70001896FF0
:1029E000FF0E000181150001856F010E00018215A7
:1029F0000001866F000E000183150001876F000E35
:102A0000000184150001886F00018851851186112D
:102A10008711D8A41FD0000181C085F0000182C0B9
:102A200086F0000183C087F0000184C088F00A0EA0
:102A300006D00001D8908833873386338533E82E5B
:102A4000F8D785C081F086C082F087C083F088C047
:102A500084F02AD0000181C085F0000182C086F098
:102A6000000183C087F0000184C088F00A0E06D000
:102A70000001D8908833873386338533E82EF8D722
:102A8000010E000185250001816F000E00018621E5
:102A90000001826F000E000187210001836F000E8C
:102AA000000188210001846F070E000181150001DB
:102AB000856F000E000182150001866F000E000177
:102AC00083150001876F000E000184150001886FD7
:102AD00000018851851186118711D8A41FD00001EB
:102AE00081C085F0000182C086F0000183C087F0BC
:102AF000000184C088F0040E06D00001D89088330D
:102B0000873386338533E82EF8D785C081F086C0B9
:102B100082F087C083F088C084F02AD0000181C091
:102B200085F0000182C086F0000183C087F00001BB
:102B300084C088F0040E06D00001D8908833873313
:102B400086338533E82EF8D7010E00018525000174
:102B5000816F000E000186210001826F000E0001CE
:102B600087210001836F000E000188210001846F1E
:102B70000001F051D8B41200000E0001756F000E74
:102B80000001766F000E0001776F000E0001786F74
:102B9000000E0001796F010E4CEC19F075C08AF03F
:102BA00076C08BF077C08CF078C08DF0000189671B
:102BB00017D00001815100018A2500018A6F0001B0
:102BC000825100018B2100018B6F000183510001B4
:102BD0008C2100018C6F0001845100018D212CD0CB
:102BE000000181C085F0000182C086F0000183C031
:102BF00087F0000184C088F00001851F861F871FB1
:102C0000881F852B000E86238723882300018A5185
:102C10000001852500018A6F00018B51000186218A
:102C200000018B6F00018C510001872100018C6F26
:102C300000018D510001882100018D6F010E0001FE
:102C4000756F8AC076F08BC077F08CC078F08DC03D
:102C500079F0010E4CEC19F012000001D56F000E56
:102C60000001C96F000E0001CA6F000E0001CB6F9A
:102C7000000E0001CC6F0001C0C09CF00001BFC07D
:102C80009BF0010E00EC0EF000019BC0DDF0000196
:102C90009CC0DEF00001DE51DD11D8A407D0000198
:102CA000D56702D0010E1200000E12000001D505FA
:102CB000D8A402D0010E1200000120EE1AF000018B
:102CC000DD51D9260001DE51DA22DECFC1F0DDCFA1
:102CD000C2F0000120EE14F00001DD51D926000100
:102CE000DE51DA22DECFC3F0DDCFC4F00001C351E4
:102CF0000001C56F0001C4510001C66F0001C76B20
:102D00000001C86BC6C0C8F0C5C0C7F00001C66BE3
:102D1000C56B0001C1510001C5110001D96F00014F
:102D2000C2510001C6110001DA6F000E0001C71187
:102D30000001DB6F000E0001C8110001DC6F000113
:102D400020EE1CF00001DD51D9260001DE51DA220F
:102D50000001DECFCDF00001DECFCEF00001DECFEE
:102D6000CFF00001DECFD0F0D9C06CF0DAC06DF04A
:102D7000DBC06EF0DCC06FF016EC1EF06CC0D1F062
:102D80006DC0D2F06EC0D3F06FC0D4F0000E000161
:102D9000D86F54D00001D8510001D12500016C6FCB
:102DA000000E0001D22100016D6F000E0001D32141
:102DB00000016E6F000E0001D42100016F6F2CEC3A
:102DC0001DF0000E0001D76F000E0001D66F000E3F
:102DD0000001D65D020E0001D759D8B02DD00001F8
:102DE000C9C0C1F00001CAC0C2F00001CBC0C3F02D
:102DF0000001CCC0C4F00001C92B000E0001CA23A1
:102E00000001CB230001CC230001CD510001C15DA5
:102E10000001CE510001C2590001CF510001C35938
:102E20000001D0510001C459D8A002D0000E1200F8
:102E30000001D64BD72BCBD70001D82B0001D8519E
:102E40000001C16FC26B3F500001C15D40500001E5
:102E5000C259D8A09FD7D9C079F0DAC07AF0DBC0C8
:102E60007BF0DCC07CF0000E00017D6F000E0001E5
:102E70007E6F000E00017F6F000E0001806F000E5C
:102E80000001816F57EC18F079C0D9F07AC0DAF000
:102E90007BC0DBF07CC0DCF00001DC51D911DA1121
:102EA000DB11D8A461D7000E12007F0E0001791546
:102EB00000017D6F000E00017A1500017E6F000E8B
:102EC00000017B1500017F6F000E00017C150001E1
:102ED000806F00017D510001795F00017E5100018A
:102EE0007A5B00017F5100017B5B00018051000192
:102EF0007C5B79C08FF07AC090F07BC091F07CC091
:102F000092F0BAD000018FC07DF0000190C07EF039
:102F1000000191C07FF0000192C080F0020ED890B5
:102F200000017D377E377F378037E82EF8D77DC0A8
:102F30006CF07EC06DF07FC06EF080C06FF000015D
:102F4000EEC070F00001EFC071F00001726B000183
:102F5000736BC2EC1CF06CC081F06DC082F06EC06F
:102F600083F06FC084F03950000181250001856F26
:102F70003A50000182210001866F000E000183217A
:102F80000001876F000E000184210001886F33501B
:102F9000000185250001896F345000018621000160
:102FA0008A6F35500001872100018B6F3650000178
:102FB000882100018C6F89C06CF08AC06DF08BC0D5
:102FC0006EF08CC06FF02CEC1DF0000E0001936FC2
:102FD00045D000019351040DEE0E00017D6F010EEE
:102FE0007E6FF35000017D27F45000017E237DC0E9
:102FF0008DF07EC08EF08DC0D9FF8EC0DAFFFF0E3F
:10300000DE1400017D6FFF0EDE1400017E6FFF0EE7
:10301000DE1400017F6F0F0EDE140001806F0001CF
:1030200080517D117E117F11D8A416D000019351DB
:1030300000018F250001796F000E00019021000131
:103040007A6F000E0001912100017B6F000E0001DC
:10305000922100017C6F12000001932B7F0E000172
:103060009365B7D7800E00018F27000E00019023D3
:1030700000019123000192232F5000018F5D3050F9
:10308000000190593150000191593250000192597C
:10309000D8A038D7000E0001796F000E00017A6FBA
:1030A000000E00017B6F000E00017C6F1200000E0D
:1030B0000001906F000179C082F000017AC083F0B6
:1030C00000017BC084F000017CC085F0020ED89026
:1030D00000018237833784378537E82EF8D782C0DE
:1030E0006CF083C06DF084C06EF085C06FF000019D
:1030F000EEC070F00001EFC071F00001726B0001D2
:10310000736BC2EC1CF06CC086F06DC087F06EC0B3
:1031100088F06FC089F039500001862500018A6F60
:103120003A500001872100018B6F000E00018821B9
:1031300000018C6F000E0001892100018D6F33505A
:1031400000018A250001916F345000018B2100019C
:10315000926F355000018C210001936F36500001B1
:103160008D210001946F000179C082F000017AC0C6
:1031700083F000017BC084F000017CC085F0020E6A
:10318000D89000018237833784378537E82EF8D707
:1031900082C060F083C061F084C062F085C063F0DB
:1031A0000001EEC064F00001EFC065F00001666B45
:1031B0000001676B84EC1DF060C086F061C087F091
:1031C00062C088F063C089F086C08EF087C08FF03F
:1031D0000FD091C06CF092C06DF093C06EF094C0AF
:1031E0006FF02CEC1DF00009D8B406D00001902B34
:1031F000090E00019065EDD7EE0E0001826F010E01
:10320000836F00018E510001822700018F51000160
:10321000832382C095F083C096F000017D6715D0AE
:1032200095C0D9FF96C0DAFFFF0EDE140001796F5A
:10323000FF0EDE1400017A6FFF0EDE1400017B6FBB
:103240000F0EDE1400017C6F120095C0D9FF96C0EE
:10325000DAFF00017EC0DEFF00017FC0DEFF00015B
:1032600080C0DEFF000181C0DEFF91C06CF092C023
:103270006DF093C06EF094C06FF048EC1CF0000E3F
:103280000001796F000E00017A6F000E00017B6F64
:10329000000E00017C6F120000017E6F010E000124
:1032A000806FEE0E00017F6F010E332400016C6F02
:1032B000000E342000016D6F000E352000016E6F8E
:1032C000000E362000016F6F2CEC1DF07FC0D9FF7F
:1032D00080C0DAFFDECF7AF0DECF7BF0DECF7CF08D
:1032E000DECF7DF000017D51410A520ED8B47A192B
:1032F000520ED8B47B19610ED8B47C19D8A43AD038
:10330000000121EEE4F000017F51D9260001805137
:10331000DA22DECF7AF0DECF7BF0DECF7CF0DECFBC
:103320007DF000017D51610A720ED8B47A19720ED7
:10333000D8B47B19410ED8B47C19D8A41BD0000195
:1033400021EEFCF000017F51D92600018051DA22E4
:10335000DECF7AF0DECF7BF0DECF7CF0DECF7DF00B
:1033600000017D51AA0A550ED8B47C197A117B113F
:10337000D8B409D000017569000176690001776948
:103380000001786912000001756730D000017E05E8
:10339000D8A416D0000121EEE8F000017F51D92613
:1033A00000018051DA220001DECF75F00001DECF8E
:1033B00076F00001DECF77F00001DECF78F012006A
:1033C000000121EEECF000017F51D926000180516F
:1033D000DA220001DECF75F00001DECF76F00001C9
:1033E000DECF77F00001DECF78F0120000017E051D
:1033F000D8A404D0000121EEE8F003D0000121EEB2
:10340000ECF000017F51D92600018051DA22000141
:1034100076C0DEFF000177C0DEFF000178C0DEFF6E
:10342000000179C0DEFF010E332400016C6F000E35
:10343000342000016D6F000E352000016E6F000E0C
:10344000362000016F6F48EC1CF000017569000127
:10345000766900017769000178691200000E0001A9
:10346000706F000E00016F6F9390000E3E6E000EA5
:1034700000016D6F05D0FF0E36EC1FF000016D2BC3
:10348000090E00016D65F7D78A90000E0001606F8C
:10349000000E0001616F000E0001626F000E00015E
:1034A000636F000EB6EC1BF000016E6F00016F4BF6
:1034B000702B210E00016F5D000E00017059D8A025
:1034C00002D0010E120000016E05D8A4DED78A805A
:1034D000FF0E36EC1FF0FF0E36EC1FF0000E000161
:1034E000706F000E00016F6F020E00016C6FAA0E6C
:1034F0000001606F010E0001616F000E0001626F3C
:10350000000E0001636F080EB6EC1BF000016E6F39
:1035100000016F4B702BFF0E00016F5D000E00016C
:103520007059D8A006D0010E00016C6F010E3E6EDE
:1035300004D000016E05D8A4DAD7000E0001706F28
:10354000000E00016F6F000E0001606F000E0001A1
:10355000616F000E0001626F000E0001636F370E95
:10356000B6EC1BF000016E6F000E0001606F000EE4
:103570000001616F000E0001626F400E0001636F79
:10358000290EB6EC1BF000016E6F00016F4B702B23
:10359000FF0E00016F5D000E00017059D8A002D02F
:1035A000020E120000016E67CED7000E0001706F90
:1035B000000E00016F6F000E3D6E00016C51020A9B
:1035C000D8A429D0000E0001606F000E0001616FC9
:1035D000000E0001626F000E0001636F3A0EB6EC40
:1035E0001BF000016E6F00016F4B702BFF0E00018E
:1035F0006F5D000E00017059D8A003D0000E3E6E22
:1036000003D000016E67DED73D04D8A402D0020EBD
:1036100001D0030E3E6E000E12000001996F21EEE4
:10362000A2F010EE85F0140EDECFE6FFE82EFCD7F8
:103630000C0E00019A6F8FD000019A51050AD8B480
:1036400005D000019A51090AD8A420D0FF0E00012C
:103650007D6FFF0E7E6F00019A5100017F6F806BBE
:1036600000017D5100017F2700017E510001802370
:103670000001850E00017F25D96E0001000E0001BA
:103680008021DA6E2C0EDF6E00019A07FF0E00011A
:103690007D6FFF0E7E6F00019A5100017F6F806B7E
:1036A00000017D5100017F2700017E510001802330
:1036B0000001850E00017F25D96E0001000E00017A
:1036C0008021DA6E79C060F07AC061F07BC062F070
:1036D0007CC063F00A0E0001646F000E0001656F8C
:1036E000000E0001666F000E0001676F84EC1DF094
:1036F00060C081F061C082F062C083F063C084F07A
:10370000000181513009DF6E79C06CF07AC06DF034
:103710007BC06EF07CC06FF00A0E0001706F000E6F
:103720000001716F000E0001726F000E0001736FD7
:10373000C2EC1CF06CC079F06DC07AF06EC07BF00A
:103740006FC07CF000017C5179117A117B11D8B4E3
:1037500005D000019A0700019A676ED7000199050C
:10376000D8A412004B0E0001926F120000016B6F83
:10377000000E0001686F3D663BD000016B51110ADD
:10378000D8B419D000016B51120AD8B414D000017A
:103790006B51180AD8B40FD000016B51190AD8B474
:1037A0000AD000016B51200AD8B405D000016B513A
:1037B000210AD8A41DD0000160C064F0000161C0DE
:1037C00065F0000162C066F0000163C067F0090E99
:1037D000D89000016437653766376737E82EF8D729
:1037E00064C060F065C061F066C062F067C063F0FD
:1037F0008A9000016B51400936EC1FF000016351C3
:1038000036EC1FF00001625136EC1FF000016151EF
:1038100036EC1FF00001605136EC1FF000016B51D7
:10382000080AD8A404D0870E36EC1FF007D0950EF6
:1038300036EC1FF003D00001682B08D04DEC1FF0D0
:1038400000016A6F00016A29D8B4F5D700016A67E0
:1038500019D000016B513A0AD8A414D04DEC1FF0D6
:10386000400B0001696F00016951400AD8A402D0E1
:10387000010E01D0000E3D6E4DEC1FF04DEC1FF01F
:103880004DEC1FF04DEC1FF08A8000016A511200D0
:10389000000E0001716F000E0001706F6CC060F0CF
:1038A0006DC061F06EC062F06FC063F0180EB6ECD0
:1038B0001BF00001746F00017451D8B403D00001F3
:1038C000745112008A90FE0E36EC1FF0000E0001BB
:1038D000736F000E0001726F000E0001725D020E28
:1038E00000017359D8B00FD0EE0E00017225D96EC9
:1038F000010E00017321DA6EDF5036EC1FF000017B
:10390000724B732BE9D7FF0E36EC1FF0FF0E36EC2F
:103910001FF04DEC1FF00001746F74C022F01F0EF9
:1039200022162250050AD8B40FD08A8000017451A3
:1039300012000001704B712B000171517011D8A45D
:1039400003D08A80010E12004DEC1FF00009D8B49C
:10395000F0D78A80FF0E36EC1FF08A900BD0000162
:10396000704B712B000171517011D8A403D08A8063
:10397000010E12004DEC1FF00009D8B4F0D78A8078
:10398000000E1200000E0001746F000E0001756F32
:10399000000E0001766F000E0001776F0001735179
:1039A000701171117211D8B44ED0010E0001786FF0
:1039B0000CD00001D8900001703700017137000170
:1039C0007237000173370001782B000173AFF1D714
:1039D0000001D89000017437000175370001763777
:1039E000000177370001705100016C5D00017151D9
:1039F00000016D590001725100016E5900017351AF
:103A000000016F59D8A012D00001705100016C5F05
:103A10000001715100016D5B0001725100016E5B8C
:103A20000001735100016F5B000174810001D890A7
:103A300000017333000172330001713300017033F0
:103A40000001782FC5D774C06CF075C06DF076C0DA
:103A50006EF077C06FF01200000E0001716F000E63
:103A60000001706F6CC060F06DC061F06EC062F0FC
:103A70006FC063F0110EB6EC1BF00001726F000115
:103A80007251D8B403D00001725112008A90000E16
:103A90000001716F000E0001706F0BD00001704BC0
:103AA000712B000171517011D8A403D08A80010ECE
:103AB00012004DEC1FF0FE0AD8A4F0D7000E000152
:103AC000746F000E0001736F000E0001735D020E33
:103AD00000017459D8B00FD0EE0E00017325D96ED5
:103AE000010E00017421DA6E4DEC1FF0DF6E000153
:103AF000734B742BE9D74DEC1FF04DEC1FF04DECE0
:103B00001FF08A80000E12000001675164116511D8
:103B10006611D8B43FD0010E206E0BD00001D890B2
:103B2000000164370001653700016637000167371F
:103B3000202A000167AFF2D7000164510001605DE7
:103B4000000165510001615900016651000162598F
:103B50000001675100016359D8A010D000016451E1
:103B60000001605F000165510001615B0001665169
:103B70000001625B000167510001635B0001D890A6
:103B800000016733000166330001653300016433CF
:103B9000202ED2D760C060F061C061F062C062F0D8
:103BA00063C063F01200000E0001686F000E000198
:103BB000696F000E00016A6F000E00016B6F00015B
:103BC00060A110D000016451000168270001655117
:103BD000000169230001665100016A230001675159
:103BE00000016B230001D8900001643700016537A4
:103BF00000016637000167370001D8900001633388
:103C00000001623300016133000160330001635140
:103C1000601161116211D8A4D2D768C060F069C088
:103C200061F06AC062F06BC063F01200FE0E00012A
:103C30006C250001606FFF0E00016D210001616FB6
:103C4000FF0E00016E210001626FFF0E00016F2167
:103C50000001636F00013FC064F0000140C065F0E7
:103C60000001666B0001676BD3EC1DF060C070F063
:103C700061C071F062C072F063C073F00101105155
:103C80000001702500016C6F0101115100017121CB
:103C900000016D6F010112510001722100016E6F70
:103CA000010113510001732100016F6F1200EACF6F
:103CB00015F0E1CF16F0E2CF17F0D9CF18F0DACF38
:103CC00019F0F3CF1AF0F4CF1BF0F6CF1CF0F7CFBA
:103CD0001DF0F8CF1EF0F5CF1FF01FC0F5FF1EC07E
:103CE000F8FF1DC0F7FF1CC0F6FF1BC0F4FF1AC091
:103CF000F3FF19C0DAFF18C0D9FF17C0E2FF16C0E2
:103D0000E1FF15C0EAFF14C0E9FF13C0FBFF12C0BA
:103D1000FAFF110001EEEEF012EE00F0EE6AE5504F
:103D2000E150FCE1E250FAE101EE00F0780EEE6ABB
:103D3000E806FDE10001F06BEF6BEE6B00EE23F0A7
:103D40001E0EEE6AE806FDE1C40EF66E3D0EF76E3D
:103D5000000EF86E01EE78F010EE4AF00900F5CF93
:103D6000EEFFE550E150FAE1000EF86E00010EEFB3
:103D700013F0226E3F0E6D16000E6C6E22506C1208
:103D800021506D12206602D06D8C0AD02050020A9C
:103D9000D8A402D06D8C03D02050030AD8B46C880C
:103DA0002250040AD8A403D09580958607D02250CB
:103DB000050AD8A402D0958001D09590959495825B
:103DC0006C8A1200546869732069732061207265DF
:103DD000636F726420616E642061206E756D626530
:103DE0007220666F6C6C6F777320300D0A00202094
:103DF00020202020202020202020202042797465AF
:103E00007300444154414C4F475354585400030EDF
:103E10000001616F400E0001606F000EAC6E000E7D
:103E2000AB6EB886AC8460C0AFFF000161C020F00B
:103E300020C021F0226A2150B06E9D9A9D98AC8AD4
:103E4000AB8EAB88120004D0000160515EEC1FF015
:103E500021C0F6FF22C0F7FF214A222A08000001F4
:103E6000F5CF60F000016067EFD71200216E6FCFD1
:103E700020F0A49E6C9E21C06FFF6CBE1200A4BEF9
:103E80001200FDD7216E0D0E206EFC0EE82EFED71F
:103E9000202EFCD7212EF7D712006FCF20F0A49E42
:103EA000000E6F6EA4AEFED76F501200206E210E72
:103EB000E82EFED700F0202EFAD71200206E9EA822
:103EC000FED720C0ADFF12008B74A00E42EC1FF095
:0A3ED000FBD73E501200010E120055
:020000040020DA
:08000000FFFFFFFFFFFFFFFF00
:020000040030CA
:0E000000FF251F3FFFBF85FF0FC00FE00F4021
:00000001FF
